{
  "contractName": "Certifications",
  "abi": [
    {
      "constant": true,
      "inputs": [
        {
          "name": "",
          "type": "address"
        }
      ],
      "name": "issuers",
      "outputs": [
        {
          "name": "name",
          "type": "string"
        },
        {
          "name": "registered",
          "type": "uint64"
        },
        {
          "name": "expiration",
          "type": "uint64"
        }
      ],
      "payable": false,
      "stateMutability": "view",
      "type": "function"
    },
    {
      "inputs": [
        {
          "name": "_rft",
          "type": "address"
        }
      ],
      "payable": false,
      "stateMutability": "nonpayable",
      "type": "constructor"
    },
    {
      "constant": false,
      "inputs": [
        {
          "name": "_tokenId",
          "type": "uint256"
        },
        {
          "name": "_expiration",
          "type": "uint64"
        },
        {
          "name": "_v",
          "type": "uint8"
        },
        {
          "name": "_r",
          "type": "bytes32"
        },
        {
          "name": "_s",
          "type": "bytes32"
        }
      ],
      "name": "certifyToken",
      "outputs": [],
      "payable": false,
      "stateMutability": "nonpayable",
      "type": "function"
    },
    {
      "constant": true,
      "inputs": [
        {
          "name": "_tokenId",
          "type": "uint256"
        },
        {
          "name": "_issuer",
          "type": "address"
        }
      ],
      "name": "validateToken",
      "outputs": [
        {
          "name": "",
          "type": "uint64"
        },
        {
          "name": "",
          "type": "uint64"
        },
        {
          "name": "",
          "type": "uint8"
        },
        {
          "name": "",
          "type": "bytes32"
        },
        {
          "name": "",
          "type": "bytes32"
        }
      ],
      "payable": false,
      "stateMutability": "view",
      "type": "function"
    }
  ],
  "bytecode": "0x608060405234801561001057600080fd5b50604051602080610ff58339810180604052810190808051906020019092919050505080600160006101000a81548173ffffffffffffffffffffffffffffffffffffffff021916908373ffffffffffffffffffffffffffffffffffffffff16021790555050610f71806100846000396000f300608060405260043610610057576000357c0100000000000000000000000000000000000000000000000000000000900463ffffffff16806338a7543e1461005c5780634bd34b411461014e578063cc0b403e14610209575b600080fd5b34801561006857600080fd5b5061009d600480360381019080803573ffffffffffffffffffffffffffffffffffffffff169060200190929190505050610273565b60405180806020018467ffffffffffffffff1667ffffffffffffffff1681526020018367ffffffffffffffff1667ffffffffffffffff168152602001828103825285818151815260200191508051906020019080838360005b838110156101115780820151818401526020810190506100f6565b50505050905090810190601f16801561013e5780820380516001836020036101000a031916815260200191505b5094505050505060405180910390f35b34801561015a57600080fd5b5061019960048036038101908080359060200190929190803573ffffffffffffffffffffffffffffffffffffffff16906020019092919050505061035d565b604051808667ffffffffffffffff1667ffffffffffffffff1681526020018567ffffffffffffffff1667ffffffffffffffff1681526020018460ff1660ff168152602001836000191660001916815260200182600019166000191681526020019550505050505060405180910390f35b34801561021557600080fd5b5061027160048036038101908080359060200190929190803567ffffffffffffffff169060200190929190803560ff1690602001909291908035600019169060200190929190803560001916906020019092919050505061098c565b005b6000602052806000526040600020600091509050806000018054600181600116156101000203166002900480601f01602080910402602001604051908101604052809291908181526020018280546001816001161561010002031660029004801561031f5780601f106102f45761010080835404028352916020019161031f565b820191906000526020600020905b81548152906001019060200180831161030257829003601f168201915b5050505050908060010160009054906101000a900467ffffffffffffffff16908060010160089054906101000a900467ffffffffffffffff16905083565b60008060008060008060008060008a141515156103e2576040517f08c379a00000000000000000000000000000000000000000000000000000000081526004018080602001828103825260108152602001807f496e76616c696420746f6b656e2069640000000000000000000000000000000081525060200191505060405180910390fd5b600073ffffffffffffffffffffffffffffffffffffffff168973ffffffffffffffffffffffffffffffffffffffff1614151515610487576040517f08c379a00000000000000000000000000000000000000000000000000000000081526004018080602001828103825260168152602001807f496e76616c69642069737375657220616464726573730000000000000000000081525060200191505060405180910390fd5b6000808a73ffffffffffffffffffffffffffffffffffffffff1673ffffffffffffffffffffffffffffffffffffffff1681526020019081526020016000209250428360010160009054906101000a900467ffffffffffffffff1667ffffffffffffffff16101515610560576040517f08c379a000000000000000000000000000000000000000000000000000000000815260040180806020018281038252600e8152602001807f496e76616c69642069737375657200000000000000000000000000000000000081525060200191505060405180910390fd5b8260020160008b81526020019081526020016000209150428260000160009054906101000a900467ffffffffffffffff1667ffffffffffffffff16101515610610576040517f08c379a00000000000000000000000000000000000000000000000000000000081526004018080602001828103825260168152602001807f4e6f2063657274696669636174696f6e20666f756e640000000000000000000081525060200191505060405180910390fd5b61066a82600101606060405190810160405290816000820160009054906101000a900460ff1660ff1660ff16815260200160018201546000191660001916815260200160028201546000191660001916815250508b610be6565b90508873ffffffffffffffffffffffffffffffffffffffff168173ffffffffffffffffffffffffffffffffffffffff1614151561070f576040517f08c379a00000000000000000000000000000000000000000000000000000000081526004018080602001828103825260118152602001807f496e76616c6964207369676e617475726500000000000000000000000000000081525060200191505060405180910390fd5b8160000160009054906101000a900467ffffffffffffffff1667ffffffffffffffff168360010160009054906101000a900467ffffffffffffffff1667ffffffffffffffff161015156107ca576040517f08c379a000000000000000000000000000000000000000000000000000000000815260040180806020018281038252600e8152602001807f496e76616c69642069737375657200000000000000000000000000000000000081525060200191505060405180910390fd5b8160000160009054906101000a900467ffffffffffffffff1667ffffffffffffffff168360010160089054906101000a900467ffffffffffffffff1667ffffffffffffffff16111515610885576040517f08c379a000000000000000000000000000000000000000000000000000000000815260040180806020018281038252600e8152602001807f457870697265642069737375657200000000000000000000000000000000000081525060200191505060405180910390fd5b8160000160089054906101000a900467ffffffffffffffff1667ffffffffffffffff164210151561091e576040517f08c379a00000000000000000000000000000000000000000000000000000000081526004018080602001828103825260158152602001807f496e76616c69642063657274696669636174696f6e000000000000000000000081525060200191505060405180910390fd5b8160000160009054906101000a900467ffffffffffffffff168260000160089054906101000a900467ffffffffffffffff168360010160000160009054906101000a900460ff1684600101600101548560010160020154975097509750975097505050509295509295909350565b6000806000803373ffffffffffffffffffffffffffffffffffffffff1673ffffffffffffffffffffffffffffffffffffffff1681526020019081526020016000209150428260010160009054906101000a900467ffffffffffffffff1667ffffffffffffffff16111515610a68576040517f08c379a000000000000000000000000000000000000000000000000000000000815260040180806020018281038252600e8152602001807f496e76616c69642069737375657200000000000000000000000000000000000081525060200191505060405180910390fd5b8160010160089054906101000a900467ffffffffffffffff1667ffffffffffffffff1642101515610b01576040517f08c379a000000000000000000000000000000000000000000000000000000000815260040180806020018281038252600e8152602001807f497373756572206578706972656400000000000000000000000000000000000081525060200191505060405180910390fd5b8160020160008881526020019081526020016000209050858160000160086101000a81548167ffffffffffffffff021916908367ffffffffffffffff160217905550428160000160006101000a81548167ffffffffffffffff021916908367ffffffffffffffff1602179055506060604051908101604052808660ff1681526020018560001916815260200184600019168152508160010160008201518160000160006101000a81548160ff021916908360ff160217905550602082015181600101906000191690556040820151816002019060001916905590505050505050505050565b6000806000806060806000600160009054906101000a900473ffffffffffffffffffffffffffffffffffffffff1673ffffffffffffffffffffffffffffffffffffffff1663e4b50cb8896040518263ffffffff167c010000000000000000000000000000000000000000000000000000000002815260040180828152602001915050600060405180830381600087803b158015610c8257600080fd5b505af1158015610c96573d6000803e3d6000fd5b505050506040513d6000823e3d601f19601f820116820180604052506080811015610cc057600080fd5b810190808051906020019092919080519060200190929190805190602001909291908051640100000000811115610cf657600080fd5b82810190506020810184811115610d0c57600080fd5b8151856001820283011164010000000082111715610d2957600080fd5b5050929190505050955095509550955085858585604051602001808567ffffffffffffffff1667ffffffffffffffff1678010000000000000000000000000000000000000000000000000281526008018463ffffffff1663ffffffff167c01000000000000000000000000000000000000000000000000000000000281526004018363ffffffff1663ffffffff167c010000000000000000000000000000000000000000000000000000000002815260040182805190602001908083835b602083101515610e0c5780518252602082019150602081019050602083039250610de7565b6001836020036101000a0380198251168184511680821785525050505050509050019450505050506040516020818303038152906040529150816040518082805190602001908083835b602083101515610e7b5780518252602082019150602081019050602083039250610e56565b6001836020036101000a038019825116818451168082178552505050505050905001915050604051809103902090506001818a600001518b602001518c60400151604051600081526020016040526040518085600019166000191681526020018460ff1660ff1681526020018360001916600019168152602001826000191660001916815260200194505050505060206040516020810390808403906000865af1158015610f2d573d6000803e3d6000fd5b505050602060405103519650505050505050929150505600a165627a7a723058206c482beffec60b68e30375db97b3f666255aae5ed8a83f4af8be7b13d9452f210029",
  "source": "pragma solidity ^0.4.24;\n\nimport \"./RFT.sol\";\n\ncontract Certifications {\n  struct Signature {\n    uint8 v;\n    bytes32 r;\n    bytes32 s;\n  }\n\n  struct Certification {\n    uint64 issued;\n    uint64 expiration;\n    Signature signature;\n  }\n\n  struct Issuer {\n    string name;\n    uint64 registered;\n    uint64 expiration;\n    mapping(uint => Certification) certifications;\n  }\n\n  mapping (address => Issuer) public issuers;\n  RFT private rft;\n\n  constructor(address _rft) public {\n    rft = RFT(_rft);\n  }\n\n  function certifyToken(\n    uint _tokenId,\n    uint64 _expiration,\n    uint8 _v,\n    bytes32 _r,\n    bytes32 _s\n  ) external {\n    Issuer storage issuer = issuers[msg.sender];\n    require(issuer.registered > block.timestamp, \"Invalid issuer\");\n    require(block.timestamp < issuer.expiration, \"Issuer expired\");\n\n    Certification storage certification = issuer.certifications[_tokenId];\n    certification.expiration = _expiration;\n    certification.issued = uint64(block.timestamp);\n    certification.signature = Signature(_v, _r, _s);\n  }\n\n  function validateToken(\n    uint _tokenId,\n    address _issuer\n  ) external view returns (uint64, uint64, uint8, bytes32, bytes32) {\n    require(_tokenId != 0, \"Invalid token id\");\n    require(_issuer != address(0), \"Invalid issuer address\");\n\n    Issuer storage issuer = issuers[_issuer];\n    require(issuer.registered < block.timestamp, \"Invalid issuer\");\n\n    Certification storage certification = issuer.certifications[_tokenId];\n    require(certification.issued < block.timestamp, \"No certification found\");\n\n    address addr = _validateCertification(certification.signature, _tokenId);\n    require(addr == _issuer, \"Invalid signature\");\n    require(issuer.registered < certification.issued, \"Invalid issuer\");\n    require(issuer.expiration > certification.issued, \"Expired issuer\");\n    require(block.timestamp < certification.expiration, \"Invalid certification\");\n\n    return (\n      certification.issued,\n      certification.expiration,\n      certification.signature.v,\n      certification.signature.r,\n      certification.signature.s\n    );\n  }\n\n  function _validateCertification(Signature _signature, uint _tokenId) internal view returns (address) {\n    (uint64 issued, uint32 baseUnit, uint32 amount, string memory geoJson) = rft.getToken(_tokenId);\n    bytes memory packed = abi.encodePacked(issued, baseUnit, amount, geoJson);\n    bytes32 data = keccak256(packed);\n\n    return ecrecover(data, _signature.v, _signature.r, _signature.s);\n  }\n}\n",
  "sourcePath": "/home/diego/Projects/source/colm3na/reforestum-ethereum/contracts/Certifications.sol",
  "compiler": {
    "name": "solc",
    "version": "0.4.24+commit.e67f0147.Emscripten.clang"
  },
  "schemaVersion": "2.0.1",
  "updatedAt": "2018-10-25T15:11:27.048Z"
}